:100000000C9462000C948A000C948A000C948A0070
:100010000C948A000C948A000C948A000C948A0038
:100020000C948A000C948A000C948A000C948A0028
:100030000C948A000C94BB030C948A000C948A00E4
:100040000C9471030C948A000C948A000C948A001E
:100050000C948A000C948A000C948A000C948A00F8
:100060000C948A000C948A000000000024002700F1
:100070002A0000000000250028002B0000000000DE
:1000800023002600290004040404040404040202DA
:100090000202020203030303030301020408102007
:1000A0004080010204081020010204081020000012
:1000B0000008000201000003040700000000000027
:1000C0000000FF0411241FBECFEFD8E0DEBFCDBF7C
:1000D00011E0A0E0B1E0E0E9FAE002C005900D9285
:1000E000A239B107D9F721E0A2E9B1E001C01D9220
:1000F000AD3BB207E1F710E0C2E6D0E004C02197C3
:10010000FE010E944005C136D107C9F70E94E203F3
:100110000C9446050C940000833081F028F4813063
:1001200099F08230A9F008958730A9F08830C9F09D
:100130008430B1F4809180008F7D03C08091800075
:100140008F7780938000089584B58F7784BD08955C
:1001500084B58F7DFBCF8091B0008F778093B00006
:1001600008958091B0008F7DF9CFCF93DF93282F32
:1001700030E0F901E255FF4F8491F901E656FF4F57
:10018000D491F901EA57FF4FC491CC23A1F081111A
:100190000E948C00EC2FF0E0EE0FFF1FE458FF4FA1
:1001A000A591B491EC91ED2381E090E009F480E019
:1001B000DF91CF91089580E090E0FACF1F93CF9325
:1001C000DF93282F30E0F901E255FF4F8491F901C8
:1001D000E656FF4FD491F901EA57FF4FC491CC2363
:1001E000A9F0162F81110E948C00EC2FF0E0EE0F89
:1001F000FF1FEE58FF4FA591B4918FB7F894EC9183
:10020000111108C0D095DE23DC938FBFDF91CF9111
:100210001F910895DE2BF8CFCF93DF9390E0FC0180
:10022000E656FF4F24918A579F4FFC018491882303
:10023000C9F090E0880F991FFC01E859FF4FA59184
:10024000B491FC01EE58FF4FC591D49161110DC0DE
:100250009FB7F8948C91209582238C9388812823D2
:1002600028839FBFDF91CF910895623051F49FB7EB
:10027000F8943C91822F809583238C93E8812E2BD8
:10028000EFCF8FB7F894EC912E2B2C938FBFEACF42
:10029000AF92BF92CF92DF92EF92FF920F931F9394
:1002A000CF93DF936C017B018B01040F151FEB01D2
:1002B0005E01AE18BF08C017D10759F06991D60189
:1002C000ED91FC910190F081E02DC6010995892BFB
:1002D00079F7C501DF91CF911F910F91FF90EF90BA
:1002E000DF90CF90BF90AF900895089590E080E0A8
:1002F000089508958F929F92AF92BF920F931F938C
:10030000CF93DF93CDB7DEB7A1970FB6F894DEBFDA
:100310000FBECDBF19A2423008F44AE08E010F5D36
:100320001F4F842E912CB12CA12CA50194010E9469
:100330001E05E62FB901CA01EA3044F5E05DD80197
:10034000EE938D01232B242B252B79F790E080E071
:10035000109769F0FD0101900020E9F73197AF0196
:100360004A1B5B0BBD0185EA91E00E944801A19602
:100370000FB6F894DEBF0FBECDBFDF91CF911F91B6
:100380000F91BF90AF909F908F900895E95CD7CF69
:10039000FC0101900020E9F73197AF01481B590B90
:1003A000BC0185EA91E00C944801CF93DF93EC0106
:1003B00060E08E810E94DE0061E08E810E94DE009E
:1003C00060E08E810E94DE008BE891E00197F1F7FA
:1003D000DF91CF910895CF92DF92EF92FF920F932A
:1003E0001F93CF93DF936C017C0187E0E80EF11C33
:1003F000D0E0C0E0062F10E0B8010C2E02C07595C9
:1004000067950A94E2F76170F70181917F010E947C
:10041000DE002196C430D10579F7C601DF91CF9176
:100420001F910F91FF90EF90DF90CF900C94D5012A
:10043000CF92DF92EF92FF920F931F93CF93DF93B0
:10044000EC01F62E642F8C810E94DE008D818F3F9F
:1004500019F060E00E94DE000F2D10E08F8584FF10
:1004600025C06E0187E0C80ED11CF12CE12CB8012B
:100470000E2C02C0759567950A94E2F76170F6013B
:1004800081916F010E94DE00FFEFEF1AFF0A88E002
:10049000E816F10461F7CE01DF91CF911F910F9122
:1004A000FF90EF90DF90CF900C94D501B80184E0DD
:1004B000759567958A95E1F7CE010E94EB016F2D46
:1004C000CE01DF91CF911F910F91FF90EF90DF90C0
:1004D000CF900C94EB0140E0682F85EA91E00C94FA
:1004E0001802CF93DF93613029F09091B4019860A6
:1004F0009093B4016093B8011092B90190E4909385
:10050000BA018093BB01805C8093BC0161E0809163
:10051000A9010E940C018091AA018F3F19F061E0AE
:100520000E940C0161E08091AB010E940C01C5EAC0
:10053000D1E09E01255A31408091B40184FD0BC069
:1005400084E090E021962817390744F461E08E8119
:100550000E940C01EECF88E090E0F4CF8BE39DE0A9
:100560000197F1F760E08091A9010E94DE0060E050
:100570008091AB010E94DE008091AA018F3F19F0AB
:1005800060E00E94DE008091B40184FD39C063E028
:1005900085EA91E00E94EB01CBE4D6E4CE0101971D
:1005A000F1F763E085EA91E00E94EB012197F1F712
:1005B00063E085EA91E00E94EB0183E592E0019718
:1005C000F1F762E085EA91E00E94EB018091B401CD
:1005D00080620E946B0284E08093B5018CE00E94EF
:1005E0006B0281E00E946B028BE39FE10197F1F7C0
:1005F00082E08093B60186E0DF91CF910C946B028C
:1006000080620E946B028BE496E40197F1F780917F
:10061000B40180620E946B0283E592E00197F1F7DA
:100620008091B40180620E946B02D0CF9091B8019A
:10063000691710F06FEF690FE62FF0E0EB55FE4FF2
:100640009489890F80680C946B0241E00E94180223
:1006500081E090E00895CF92DF92EF92FF926B01DC
:100660007C0141E06DE285EA91E00E941802662774
:100670007727CB016C197D098E099F094AE00E94FA
:100680007A010196FF90EF90DF90CF900895CF937D
:10069000DF9380919A0190919B010197F9F4C091A9
:1006A0009401D09195012196D0939501C093940126
:1006B00063E08EE00E941603BE01DD0F880B990BEC
:1006C00097FF08C00E942B038EE091E0DF91CF914D
:1006D0000C94C8014AE00E947A01F6CFDF91CF91D5
:1006E00008951F920F920FB60F9211242F933F93EC
:1006F0008F939F93AF93BF938091A1019091A2019B
:10070000A091A301B091A4013091A00123E0230F97
:100710002D3758F50196A11DB11D2093A00180939E
:10072000A1019093A201A093A301B093A401809191
:100730009C0190919D01A0919E01B0919F01019615
:10074000A11DB11D80939C0190939D01A0939E01DA
:10075000B0939F01BF91AF919F918F913F912F9146
:100760000F900FBE0F901F90189526E8230F02964A
:10077000A11DB11DD2CF1F920F920FB60F9211245F
:100780002F933F934F935F936F937F938F939F9399
:10079000AF93BF93EF93FF93E0910001F0910101BC
:1007A0000995FF91EF91BF91AF919F918F917F91AB
:1007B0006F915F914F913F912F910F900FBE0F90CE
:1007C0001F901895789484B5826084BD84B581604B
:1007D00084BD85B5826085BD85B5816085BD80910C
:1007E0006E00816080936E00109281008091810084
:1007F000826080938100809181008160809381007C
:10080000809180008160809380008091B10084603D
:100810008093B1008091B00081608093B00080919E
:100820007A00846080937A0080917A00826080935D
:100830007A0080917A00816080937A0080917A00BA
:10084000806880937A001092C10060E08EE00E9480
:100850000C0162E082E00E940C0180E18093810043
:100860001092800088EA91E690938700809386003A
:1008700084E18093810087E493E090930101809369
:10088000000181E080936F0064E084E10E947102C6
:1008900081E00E946B028BE39FE10197F1F760E03A
:1008A00080E00E94160386E191E00E94C80161E0A9
:1008B00080E00E9416038DE291E00E94C80163E08F
:1008C00080E00E94160381E491E00E94C80186E066
:1008D000F82EC0E0D0E001E010E082E00E94B50018
:1008E000892BA1F462E080E00E9416038FE491E07E
:1008F0000E94C80163E080E00E94160380E691E058
:100900000E94C80110939B0100939A0180919A0163
:1009100090919B01019709F068C08EE00E94B5009C
:1009200081309105A1F42091980130919901232BF8
:1009300071F420919601309197012F5F3F4F3093D2
:1009400097012093960190939901809398018EE0EE
:100950000E94B500892B51F48091980190919901E2
:10096000019721F4109299011092980180919401BD
:10097000909195010A97C9F52091960130919701C0
:10098000F29EC001F39E900D1124909393018093E9
:10099000920110929B0110929A0162E080E00E9405
:1009A00016038FE691E00E94C80160919201709158
:1009B0009301072E000C880B990B97FF1CC00E9417
:1009C0002B0383E191E00E94C80163E080E00E9474
:1009D00016038DE791E00E94C801109297011092D2
:1009E00096011092950110929401209709F475CF09
:1009F0000E94000072CF4AE00E947A01E2CFE5EA4D
:100A0000F1E01382128286E091E0918380838DE091
:100A100084838FEF85838CE086838BE087838AE0F5
:100A2000808789E0818788E082871386148615860F
:100A30001686178661E080E10C947102A1E21A2EFD
:100A4000AA1BBB1BFD010DC0AA1FBB1FEE1FFF1F72
:100A5000A217B307E407F50720F0A21BB30BE40BC2
:100A6000F50B661F771F881F991F1A9469F7609509
:100A70007095809590959B01AC01BD01CF010895C3
:100A8000EE0FFF1F0590F491E02D0994F894FFCF2D
:100A9000790100000000250348017601750120203E
:100AA0002020202020002020544845204252494741
:100AB0004854204C494748542020202000204865B5
:100AC0006172742D42656174202053656E736F727C
:100AD0000020507265737320427574746F6E00202D
:100AE000484220436F756E74696E672E2E2E20006B
:100AF00020506C6561736520576169743A2000204D
:100B0000484220506572204D696E3A200020507294
:100B100065737320427574746F6E20416761696EEE
:020B20002E00A5
:00000001FF
