:100000000C9462000C948A000C948A000C948A0070
:100010000C948A000C948A000C948A000C948A0038
:100020000C948A000C948A000C948A000C948A0028
:100030000C948A000C9431050C948A000C948A006C
:100040000C948F040C948A000C94FF040C94D90433
:100050000C948A000C948A000C948A000C948A00F8
:100060000C948A000C948A000000000024002700F1
:100070002A0000000000250028002B0000000000DE
:1000800023002600290004040404040404040202DA
:100090000202020203030303030301020408102007
:1000A0004080010204081020010204081020000012
:1000B0000008000201000003040700000000000027
:1000C0000000580511241FBECFEFD8E0DEBFCDBF22
:1000D00011E0A0E0B1E0EEEFFEE002C005900D926D
:1000E000A63BB107D9F722E0A6EBB1E001C01D9213
:1000F000AC37B207E1F710E0C2E6D0E004C02197C8
:10010000FE010E947707C136D107C9F70E94A305F7
:100110000C947D070C940000833081F028F481302A
:1001200099F08230A9F008958730A9F08830C9F09D
:100130008430B1F4809180008F7D03C08091800075
:100140008F7780938000089584B58F7784BD08955C
:1001500084B58F7DFBCF8091B0008F778093B00006
:1001600008958091B0008F7DF9CFCF93DF93282F32
:1001700030E0F901E255FF4F8491F901E656FF4F57
:10018000D491F901EA57FF4FC491CC23A1F081111A
:100190000E948C00EC2FF0E0EE0FFF1FE458FF4FA1
:1001A000A591B491EC91ED2381E090E009F480E019
:1001B000DF91CF91089580E090E0FACF1F93CF9325
:1001C000DF93282F30E0F901E255FF4F8491F901C8
:1001D000E656FF4FD491F901EA57FF4FC491CC2363
:1001E000A9F0162F81110E948C00EC2FF0E0EE0F89
:1001F000FF1FEE58FF4FA591B4918FB7F894EC9183
:10020000111108C0D095DE23DC938FBFDF91CF9111
:100210001F910895DE2BF8CFCF93DF9390E0FC0180
:10022000E656FF4F24918A579F4FFC018491882303
:10023000C9F090E0880F991FFC01E859FF4FA59184
:10024000B491FC01EE58FF4FC591D49161110DC0DE
:100250009FB7F8948C91209582238C9388812823D2
:1002600028839FBFDF91CF910895623051F49FB7EB
:10027000F8943C91822F809583238C93E8812E2BD8
:10028000EFCF8FB7F894EC912E2B2C938FBFEACF42
:100290003FB7F8948091C3019091C401A091C5012A
:1002A000B091C60126B5A89B05C02F3F19F0019655
:1002B000A11DB11D3FBFBA2FA92F982F8827BC01C0
:1002C000CD01620F711D811D911D42E0660F771FE8
:1002D000881F991F4A95D1F70895AF92BF92CF9288
:1002E000DF92EF92FF920F931F93CF93DF936C01F6
:1002F0007B018B01040F151FEB015E01AE18BF08D7
:10030000C017D10759F06991D601ED91FC91019088
:10031000F081E02DC6010995892B79F7C501DF91A0
:10032000CF911F910F91FF90EF90DF90CF90BF90F2
:10033000AF900895FC01538D448D252F30E0842F1C
:1003400090E0821B930B541710F0CF9608950197FD
:100350000895FC01918D828D981761F0A28DAE0FEA
:10036000BF2FB11D5D968C91928D9F5F9F73928F71
:1003700090E008958FEF9FEF0895FC01918D828D9D
:10038000981731F0828DE80FF11D858D90E008956A
:100390008FEF9FEF0895FC01918D228D892F90E0C2
:1003A000805C9F4F821B91098F739927089587EC7A
:1003B00091E00E94CB0121E0892B09F420E0822FFB
:1003C000089580E090E0892B29F00E94D7018111E7
:1003D0000C9400000895FC01A48DA80FB92FB11D45
:1003E000A35ABF4F2C91848D90E001968F7399276B
:1003F000848FA689B7892C93A089B1898C91837049
:1004000080648C93938D848D981306C00288F38941
:10041000E02D80818F7D80830895EF92FF920F936E
:100420001F93CF93DF93EC0181E0888F9B8D8C8DA0
:1004300098131AC0E889F989808185FF15C09FB794
:10044000F894EE89FF896083E889F9898081837057
:10045000806480839FBF81E090E0DF91CF911F9106
:100460000F91FF90EF900895F62E0B8D10E00F5F27
:100470001F4F0F731127E02E8C8D8E110CC00FB6FD
:1004800007FCFACFE889F989808185FFF5CFCE0195
:100490000E94EB01F1CFEB8DEC0FFD2FF11DE35A24
:1004A000FF4FF0829FB7F8940B8FEA89FB89808118
:1004B0008062CFCFCF93DF93EC01888D8823B9F092
:1004C000AA89BB89E889F9898C9185FD03C080815F
:1004D00086FD0DC00FB607FCF7CF8C9185FFF2CFDC
:1004E000808185FFEDCFCE010E94EB01E9CFDF9146
:1004F000CF910895089590E080E008950895CF93F6
:10050000DF93EC0160E08E810E94DE0061E08E816D
:100510000E94DE0060E08E810E94DE008BE891E0A8
:100520000197F1F7DF91CF910895CF92DF92EF928B
:10053000FF920F931F93CF93DF936C017C0187E0B1
:10054000E80EF11CD0E0C0E0062F10E0B8010C2E40
:1005500002C0759567950A94E2F76170F701819181
:100560007F010E94DE002196C430D10579F7C601D3
:10057000DF91CF911F910F91FF90EF90DF90CF907F
:100580000C947F02CF92DF92EF92FF920F931F9312
:10059000CF93DF93EC01F62E642F8C810E94DE0056
:1005A0008D818F3F19F060E00E94DE000F2D10E07A
:1005B0008F8584FF25C06E0187E0C80ED11CF12C09
:1005C000E12CB8010E2C02C0759567950A94E2F7EC
:1005D0006170F60181916F010E94DE00FFEFEF1A5A
:1005E000FF0A88E0E816F10461F7CE01DF91CF91B0
:1005F0001F910F91FF90EF90DF90CF900C947F02AE
:10060000B80184E0759567958A95E1F7CE010E945F
:1006100095026F2DCE01DF91CF911F910F91FF9029
:10062000EF90DF90CF900C94950240E0682F84E625
:1006300092E00C94C202CF93DF93613029F0909145
:10064000730298609093730260937702109278021D
:1006500090E49093790280937A02805C80937B028D
:1006600061E0809168020E940C01809169028F3FD5
:1006700019F061E00E940C0161E080916A020E9421
:100680000C01C4E6D2E09E012456324080917302F0
:1006900084FD0BC084E090E021962817390744F4CC
:1006A00061E08E810E940C01EECF88E090E0F4CFF3
:1006B0008BE39DE00197F1F760E0809168020E9472
:1006C000DE0060E080916A020E94DE008091690293
:1006D0008F3F19F060E00E94DE008091730284FD7C
:1006E00039C063E084E692E00E949502CBE4D6E450
:1006F000CE010197F1F763E084E692E00E94950253
:100700002197F1F763E084E692E00E94950283E589
:1007100092E00197F1F762E084E692E00E94950290
:100720008091730280620E94150384E080937402BA
:100730008CE00E94150381E00E9415038BE39FE18A
:100740000197F1F782E08093750286E0DF91CF9107
:100750000C94150380620E9415038BE496E40197C4
:10076000F1F78091730280620E94150383E592E0A5
:100770000197F1F78091730280620E941503D0CF38
:1007800090917702691710F06FEF690FE62FF0E094
:10079000EC59FD4F9489890F80680C94150341E052
:1007A0000E94C20281E090E00895FB0101900020C8
:1007B000E9F73197AF01461B570BDC01ED91FC9136
:1007C0000280F381E02D09944F925F926F927F92A5
:1007D000AF92BF92CF92DF92EF92FF920F931F934F
:1007E000CF93DF93CDB7DEB7A1970FB6F894DEBFF6
:1007F0000FBECDBF5C016A017B01F7FE47C0DC0183
:10080000ED91FC910190F081E02D6DE209958C0154
:1008100022273327A9012C193D094E095F0919A286
:10082000FE01B1967F019AE0492E512C612C712C6A
:10083000CA01B901A30192010E945507605DD70169
:100840006E937D01211531054105510589F790E031
:1008500080E0109721F0BD01C5010E94D503800FF3
:10086000911FA1960FB6F894DEBF0FBECDBFDF91EA
:10087000CF911F910F91FF90EF90DF90CF90BF909D
:10088000AF907F906F905F904F900895AB0196016D
:1008900019A28E010F5D1F4F8AE0C82ED12CE12CCA
:1008A000F12CCA01B901A70196010E945507605DAC
:1008B000F80162938F01211531054105510589F732
:1008C00090E080E0309769F2BF01C5010E94D50336
:1008D000C8CF0C94D5038091BD018823F9F0809195
:1008E000B8019091B90101969093B9018093B80134
:1008F00063E08EE00E94C0034091B8015091B901BD
:10090000052E000C660B770B84E692E00E94E40350
:1009100060E271E084E692E00C94690408951F920D
:100920000F920FB60F9211242F933F938F939F93A3
:10093000AF93BF938091BF019091C001A091C1017D
:10094000B091C2013091BE0123E0230F2D3758F53D
:100950000196A11DB11D2093BE018093BF0190930C
:10096000C001A093C101B093C2018091C3019091D5
:10097000C401A091C501B091C6010196A11DB11D90
:100980008093C3019093C401A093C501B093C601A5
:10099000BF91AF919F918F913F912F910F900FBE7B
:1009A0000F901F90189526E8230F0296A11DB11DE8
:1009B000D2CF1F920F920FB60F9211242F933F9315
:1009C0004F935F936F937F938F939F93AF93BF9357
:1009D000EF93FF9387EC91E00E94EB01FF91EF9181
:1009E000BF91AF919F918F917F916F915F914F9147
:1009F0003F912F910F900FBE0F901F9018951F924F
:100A00000F920FB60F9211242F938F939F93EF9312
:100A1000FF93E091D701F091D8018081E091DD0151
:100A2000F091DE0182FD1BC090818091E0018F5F1B
:100A30008F732091E101821741F0E091E001F0E035
:100A4000E953FE4F958F8093E001FF91EF919F91C5
:100A50008F912F910F900FBE0F901F90189580814E
:100A6000F4CF1F920F920FB60F9211242F933F9342
:100A70004F935F936F937F938F939F93AF93BF93A6
:100A8000EF93FF93E0910001F09101010995FF912F
:100A9000EF91BF91AF919F918F917F916F915F91F6
:100AA0004F913F912F910F900FBE0F901F9018956F
:100AB000E7ECF1E01382128288EE93E0A0E0B0E070
:100AC00084839583A683B78386E091E091838083B6
:100AD00085EC90E09587848784EC90E09787868703
:100AE00080EC90E0918B808B81EC90E0938B828BFB
:100AF00082EC90E0958B848B86EC90E0978B868BD4
:100B0000118E128E138E148EE4E6F2E0138212829E
:100B100088E191E0918380838DE084838FEF8583EA
:100B20008CE086838BE087838AE0808789E08187F9
:100B300088E082871386148615861686178661E0FC
:100B400080E10C941B03789484B5826084BD84B5E5
:100B5000816084BD85B5826085BD85B5816085BDB8
:100B600080916E00816080936E0010928100809170
:100B700081008260809381008091810081608093F8
:100B80008100809180008160809380008091B1001D
:100B900084608093B1008091B00081608093B00048
:100BA00080917A00846080937A0080917A008260DC
:100BB00080937A0080917A00816080937A0080919E
:100BC0007A00806880937A001092C10060E084E02F
:100BD0000E940C0162E082E00E940C0180E180939F
:100BE00081001092800082E19AE7909387008093C1
:100BF000860084E1809381008BE694E0909301016C
:100C00008093000181E080936F0064E084E10E94A2
:100C10001B0381E00E9415038BE39FE10197F1F72D
:100C200060E080E00E94C00368E271E084E692E048
:100C30000E94690461E080E00E94C0036AE371E001
:100C400084E692E00E94690463E080E00E94C003B1
:100C500061E571E084E692E00E946904E091D701C9
:100C6000F091D80182E08083E091D301F091D4012A
:100C70001082E091D501F091D6018FEC8083109223
:100C8000DF01E091DB01F091DC0186E08083E091FF
:100C9000D901F091DA01808180618083E091D901EE
:100CA000F091DA01808188608083E091D901F09130
:100CB000DA01808180688083E091D901F091DA01C6
:100CC00080818F7D80830AE0C0E0D0E011E082E087
:100CD0000E94B500892B09F043C08091BD018111AC
:100CE00043C00E9448014B015C0182E3C82ED12C15
:100CF000E12CF12C0E944801681979098A099B09A5
:100D0000683E734081059105A8F321E0C21AD1081D
:100D1000E108F10888EE880E83E0981EA11CB11C42
:100D2000C114D104E104F10429F782E00E94B50066
:100D3000892B51F562E080E00E94C00362E671E019
:100D400084E692E00E94690463E080E00E94C003B0
:100D500063E771E084E692E00E9469041093BD01AC
:100D60008091BD01882381F084E00E94B500019745
:100D700029F48091BC01882309F46DC084E00E94AD
:100D8000B500892B09F489C08091B8019091B9010F
:100D9000069709F055C02091BA013091BB01029F1E
:100DA000C001039F900D11249093B7018093B60169
:100DB0001092BD0162E080E00E94C0036FE871E024
:100DC00084E692E00E9469044091B6015091B70117
:100DD000052E000C660B770B84E692E00E94E4037C
:100DE00065E271E084E692E00E94690463E080E0DD
:100DF0000E94C0036DE971E084E692E00E946904FC
:100E00001092BB011092BA011092B9011092B80170
:100E100060E971E087EC91E00E9469044091B601BD
:100E20005091B701052E000C660B770B87EC91E013
:100E30000E94E40362EB71E087EC91E00E94D5032D
:100E4000209709F444CF0E94D701882309F43FCFAB
:100E50000E9400003CCF8091BA019091BB010196A5
:100E60009093BB018093BA011093BC0162E080E0D3
:100E70000E94C00362E871E084E692E00E94690487
:100E80004091BA015091BB01052E000C660B770B07
:100E900084E692E00E94E40377CF8091BC0188232E
:100EA00009F472CF1092BC016FCFA1E21A2EAA1BD7
:100EB000BB1BFD010DC0AA1FBB1FEE1FFF1FA2170A
:100EC000B307E407F50720F0A21BB30BE40BF50B07
:100ED000661F771F881F991F1A9469F76095709590
:100EE000809590959B01AC01BD01CF010895EE0F57
:0E0EF000FF1F0590F491E02D0994F894FFCFB8
:100EFE007E02000000000D026D019A015A02CB0124
:100F0E00A901BD0100000000CF036D017B027A0232
:100F1E0020202020202020002020202020202020E3
:100F2E00204150535220202020002020486561721D
:100F3E00742D42656174202053656E736F7220208C
:100F4E000020202020507265737320427574746FD8
:100F5E006E0020484220436F756E74696E672E2EA8
:100F6E002E200020506C6561736520576169743ABC
:100F7E00200020486967682050756C73652000203A
:100F8E00484220506572204D696E3A200020507202
:100F9E0065737320427574746F6E20416761696E5C
:060FAE002E000D0A0000F8
:00000001FF
